S00D00006D61636B622E7372656319
S11300000C94150D0C94340D0C94340D0C94340D87
S11300100C94340D0C94340D0C94340D0C94340D58
S11300200C94340D0C94340D0C94340D0C94340D48
S11300300C94340D0C94340D0C94340D0C94340D38
S11300400C94AC0D0C94340D0C9483280C94340D46
S11300500C94340D0C94340D0C94340D0C94340D18
S11300600C94340D0C94340D0C94340D0C94340D08
S11300700C94340D0C94340D0C94340D0C94340DF8
S11300800C94340D0C94340D0C94340D7A136125B6
S1130090BB2508261F276F27BF27DB27202020200A
S11300A0202020202020202020202020202020204C
S11300B0202020202020202020202020202020203C
S11300C020202020202020007C2A2A2A2A2A2A2AAA
S11300D02A2A2A2A2A2A2A2A2A2A2A2A2A2A2A2A7C
S11300E02A2A2A2A2A2A2A2A2A2A2A2A2A2A2A2A6C
S11300F02A2A2020207C007C31303A204B41424F78
S113010047594F5A41205354455048454E092020E1
S11301102020202020202031352F552F353336360E
S11301202F455645207C007C393A204153494741AC
S1130130205354414E4C4559092020202020202092
S11301402020202020202031352F552F36303132E9
S11301502F455645207C007C383A204B41544F4E65
S1130160474F4C45204452414B4509202020202034
S11301702020202020202031352F552F36303132B9
S11301802F455645207C007C373A204F574F54204A
S11301904A4F4E415448414E09202020202020201F
S11301A02020202020202031352F552F3132333686
S11301B0312F4556457C007C363A204B414257410D
S11301C04D4120524F4E414C4409202020202020F4
S11301D02020202020202031352F552F3533393849
S11301E02F455645207C007C353A204D5552494ECA
S11301F047492052454D554C555309202020202075
S11302002020202020202031352F552F3833323420
S11302102F455645207C007C343A204D55424F4BA7
S11302205520454D4D414E55454C09202020202058
S11302302020202020202031352F552F37373338E8
S11302402F455645207C007C333A20574154415376
S11302504120564943544F522043485249530920A0
S11302602020202020202031352F552F31333736C0
S1130270322F4556457C007C323A204B4153494E3F
S1130280474142414C5941204A45524F4D4509206E
S11302902020202020202031352F552F353837338A
S11302A02F455645207C007C313A20535345424229
S11302B041414C45205041554C20202020202020F5
S11302C020202020202031352F552F313237313254
S11302D02F4556457C007C2020202047524F555006
S11302E0204D454D424552532020202020202020DF
S11302F020202020202020202020202020202020FA
S11303002020207C007C2020202057454C434F4D4A
S11303104520544F204D41434B20424556455241C0
S1130320474553202020202020202020202020204A
S113033020207C007C2A2A2A2A2A2A2A2A2A2A2AB3
S11303402A2A2A2A2A2A2A2A2A2A2A2A2A2A2A2A09
S11303502A2A2A2A2A2A2A2A2A2A2A2A2A2A20200D
S1130360207C00202053656C656374204F70746991
S11303706F6E20282031202D203820293A2000209B
S113038038203A436C656172204578697374696EEC
S1130390672053657474696E6773002037203A438D
S11303A068616E67652074686520766F6C756D652D
S11303B020746F2062652064697370656E73656470
S11303C02E002036203A434845434B20486F77207F
S11303D06D7563682074696D652074686520706C40
S11303E0616E7420686164207265737465642E00A4
S11303F02035203A434845434B20486F77206D759C
S113040063682074696D652074686520706C616E22
S1130410742068617320776F726B65642E002034DA
S1130420203A434845434B20416D6F756E74206FED
S113043066206672756974206C65667420616674E2
S11304406572206D6978696E6720746865206472CE
S1130450696E6B2E002033203A434845434B2048B5
S11304606F77206D616E7920626F74746C65732090
S11304706172652066696C6C6564207769746820B4
S113048020746865206472696E6B2E002032203AF5
S1130490434845434B20416D6F756E74206F662051
S11304A06472696E6B20696E206C69746572732066
S11304B0696E207468652073746F72616765206368
S11304C06F6E7461696E65722E002031203A20438C
S11304D06F6E6669677572652074686520706C61FB
S11304E06E742E00507265737320456E74657220AD
S11304F0746F20436F6E74696E75653B00496E7648
S1130500616C6964204F7074696F6E2C2054727929
S113051020416761696E202831202D2038293B0055
S1130520507265737320456E74657220746F204336
S11305306F6E74696E75653B0053657474696E679C
S11305407320636C6561726564207375636365739E
S11305507366756C6C790020436C656172696E67B3
S1130560204578697374696E672053657474696E85
S11305706700204368616E67652074686520766F44
S11305806C756D6520746F20626520646973706595
S11305906E7365643A00507265737320456E7465BA
S11305A07220746F20436F6E74696E75653B002012
S11305B07365636F6E6473002054696D652074689D
S11305C06520706C616E7420686164207265737458
S11305D06564202069733A00507265737320456E18
S11305E074657220746F20436F6E74696E75653B19
S11305F000207365636F6E64730054696D652074C5
S1130600686520706C616E742068617320776F7206
S11306106B65643A00507265737320456E7465723D
S113062020746F20436F6E74696E75653B00415092
S1130630504C45532052454D41494E494E47204167
S11306405245203A004755415641532052454D41A9
S1130650494E494E4720415245203A0050494E45A3
S11306604150504C45532052454D41494E494E4707
S113067020415245203A004D414E474F45532052A8
S1130680454D41494E494E4720415245203A004F7D
S113069052414E4745532052454D41494E494E47DC
S11306A020415245203A0020416D6F756E74206FD1
S11306B066206672756974206C6566742061667460
S11306C06572206D6978696E67207468652064724C
S11306D0696E6B203A00507265737320456E7465C1
S11306E07220746F20436F6E74696E75653B0020D1
S11306F0426F74746C6573207468617420617265F0
S11307002066696C6C65642077697468202074685D
S113071065206472696E6B203A00507265737320B1
S1130720456E74657220746F20436F6E74696E75C4
S1130730653B00206C69747265730020416D6F75B0
S11307406E74206F66206472696E6B20696E206C13
S1130750697465727320696E207468652073746FA0
S11307607261676520636F6E7461696E65723A00C9
S1130770507265737320456E74657220746F2043E4
S11307806F6E74696E75653B00496E76616C696461
S1130790204F7074696F6E2C205472792041676108
S11307A0696E202831202D2034293B00477561765D
S11307B061732070657263656E746167652073652B
S11307C06C65637465643A00475541564153205241
S11307D0454D41494E494E4720415245203A004536
S11307E06E746572207468652070657263656E74DA
S11307F0616765206F662067756176617300506973
S11308006E656170706C65732070657263656E747B
S11308106167652073656C65637465643A00415073
S1130820504C45532052454D41494E494E47204175
S11308305245203A00456E746572207468652070D4
S1130840657263656E74616765206F6620617070A0
S11308506C65730070696E656170706C657320708F
S1130860657263656E746167652073656C65637436
S113087065643A0050494E454150504C455320520E
S1130880454D41494E494E4720415245203A004585
S11308906E746572207468652070657263656E7429
S11308A0616765206F662070696E656170706C6544
S11308B073004D616E676F2070657263656E74615D
S11308C067652073656C65637465643A004D414ED9
S11308D0474F45532052454D41494E494E472041CB
S11308E05245203A00456E74657220746865207024
S11308F0657263656E74616765206F66206D616EF5
S1130900676F657300596F7520686176652073653C
S11309106C656374656420746865206669667468D0
S11309202063617465676F7279206F6620667275E3
S11309306974730050455243454E54414745532012
S1130940464F522054484520464F55522046525552
S11309504954532053484F554C4420544F54414C10
S113096020544F2031303000477561766173207018
S1130970657263656E746167652073656C65637425
S113098065643A004755415641532052454D41490B
S11309904E494E4720415245203A00456E746572D7
S11309A0207468652070657263656E746167652084
S11309B06F6620677561766173006170706C657332
S11309C02070657263656E746167652073656C651C
S11309D0637465643A004150504C45532052454D70
S11309E041494E494E4720415245203A00456E74D4
S11309F06572207468652070657263656E746167E2
S1130A0065206F66206170706C65730070696E6537
S1130A106170706C65732070657263656E74616774
S1130A20652073656C65637465643A0050494E458E
S1130A304150504C45532052454D41494E494E4733
S1130A4020415245203A00456E74657220746865F1
S1130A502070657263656E74616765206F662070CF
S1130A60696E656170706C6573004F72616E676565
S1130A702070657263656E746167652073656C656B
S1130A80637465643A004F52414E474553205245C2
S1130A904D41494E494E4720415245203A00456E4A
S1130AA0746572207468652070657263656E746124
S1130AB06765206F66206F72616E67657300596F9A
S1130AC07520686176652073656C65637465642060
S1130AD074686520666F75722063617465676F72F0
S1130AE079206F66206672756974730050455243AD
S1130AF0454E544147455320464F522054484520C3
S1130B00464F5552204652554954532053484F5549
S1130B104C4420544F54414C20544F203130300029
S1130B204775617661732070657263656E74616781
S1130B30652073656C65637465643A004755415676
S1130B4041532052454D41494E494E47204152455B
S1130B50203A00456E746572207468652070657271
S1130B6063656E74616765206F6620677561766181
S1130B70730050696E656170706C65732070657286
S1130B8063656E746167652073656C656374656421
S1130B903A004150504C45532052454D41494E492D
S1130BA04E4720415245203A00456E7465722074C8
S1130BB068652070657263656E74616765206F6631
S1130BC0206170706C6573004D616E676F65732092
S1130BD070657263656E746167652073656C6563C7
S1130BE07465643A004D414E474F45532052454D7C
S1130BF041494E494E4720415245203A00456E74C2
S1130C006572207468652070657263656E746167CF
S1130C1065206F66206D616E676F6573004F72614A
S1130C206E67652070657263656E746167652073B5
S1130C30656C65637465643A004F52414E47455391
S1130C402052454D41494E494E4720415245203A94
S1130C5000456E7465722074686520706572636502
S1130C606E74616765206F66206F72616E6765736D
S1130C7000596F7520686176652073656C656374CF
S1130C8065642074686520746869726420636174A3
S1130C9065676F7279206F66206672756974730078
S1130CA050455243454E544147455320464F5220E8
S1130CB054484520464F55522046525549545320D6
S1130CC053484F554C4420544F54414C20544F20CA
S1130CD031303000477561766173207065726365E9
S1130CE06E746167652073656C65637465643A004E
S1130CF04755415641532052454D41494E494E476F
S1130D0020415245203A00456E746572207468652E
S1130D102070657263656E74616765206F66206715
S1130D2075617661730050696E656170706C65738E
S1130D302070657263656E746167652073656C65A8
S1130D40637465643A0050494E454150504C4553D4
S1130D502052454D41494E494E4720415245203A83
S1130D6000456E74657220746865207065726365F1
S1130D706E74616765206F662070696E656170705E
S1130D806C6573004D616E676F6573207065726387
S1130D90656E746167652073656C65637465643A38
S1130DA0004D414E474F45532052454D41494E4910
S1130DB04E4720415245203A00456E7465722074B6
S1130DC068652070657263656E74616765206F661F
S1130DD0206D616E676F6573004F72616E67652089
S1130DE070657263656E746167652073656C6563B5
S1130DF07465643A004F52414E4745532052454D65
S1130E0041494E494E4720415245203A00456E74AF
S1130E106572207468652070657263656E746167BD
S1130E2065206F66206F72616E67657300596F7518
S1130E3020686176652073656C65637465642074ED
S1130E406865207365636F6E642063617465676FA2
S1130E507279206F6620667275697473005045520A
S1130E6043454E544147455320464F52205448452C
S1130E7020464F5552204652554954532053484F0B
S1130E80554C4420544F54414C20544F2031303061
S1130E90006170706C65732070657263656E746157
S1130EA067652073656C65637465643A00415050EE
S1130EB04C45532052454D41494E494E47204152DD
S1130EC045203A00456E746572207468652070652B
S1130ED07263656E74616765206F66206170706C03
S1130EE065730050696E656170706C657320706520
S1130EF07263656E746167652073656C65637465A0
S1130F00643A0050494E454150504C455320524597
S1130F104D41494E494E4720415245203A00456EC5
S1130F20746572207468652070657263656E74619F
S1130F306765206F662070696E656170706C65739B
S1130F40004D616E676F65732070657263656E74C2
S1130F506167652073656C65637465643A004D412F
S1130F604E474F45532052454D41494E494E472027
S1130F70415245203A00456E7465722074686520BC
S1130F8070657263656E74616765206F66206D615C
S1130F906E676F6573004F72616E6765207065726E
S1130FA063656E746167652073656C6563746564FD
S1130FB03A004F52414E4745532052454D41494E08
S1130FC0494E4720415245203A00456E74657220CF
S1130FD07468652070657263656E74616765206FFF
S1130FE066206F72616E67657300596F7520686162
S1130FF076652073656C6563746564207468652028
S113100066697273742063617465676F7279206FA7
S113101066206672756974730050455243454E5498
S11310204147455320464F522054484520464F558A
S113103052204652554954532053484F554C44204E
S1131040544F54414C20544F203130300020205311
S1131050656C656374204F7074696F6E202820314D
S1131060202D203520293A20002035203A4D616E6C
S1131070676F6573202B2050696E656170706C65B5
S1131080202B204170706C6573202B20477561768E
S113109061732E002034203A4F72616E67657320AD
S11310A02B2050696E656170706C65202B20417037
S11310B0706C6573202B204775617661732E002058
S11310C033203A4F72616E676573202B204D616E39
S11310D0676F6573202B204170706C6573202B2023
S11310E04775617661732E002032203A4F72616E2B
S11310F0676573202B204D616E676F6573202B200D
S113110050696E656170706C65202B20477561763F
S113111061732E002031203A4F72616E676573202F
S11311202B204D616E676F6573202B2050696E65AF
S11311306170706C65202B204170706C65732E009B
S113114020504C454153452053454C45435420467B
S1131150525549545320544F204D49582E00475559
S11311604156415320415641494C41424C4520414E
S11311705245203A0020456E746572204755415609
S1131180415320415641494C41424C453A00564155
S11311904C5545532053484F554C4420424520421A
S11311A045545745454E20303030302D3939393982
S11311B0004150504C455320415641494C41424C0A
S11311C04520415245203A0020456E746572204105
S11311D050504C455320415641494C41424C453AAC
S11311E00056414C5545532053484F554C442042DA
S11311F045204245545745454E20303030302D3936
S11312003939390050494E454150504C45532041DD
S11312105641494C41424C4520415245203A002018
S1131220456E7465722050494E454150504C4553AB
S113123020415641494C41424C453A0056414C5597
S113124045532053484F554C442042452042455471
S11312505745454E20303030302D39393939004D1D
S1131260414E474F455320415641494C41424C451C
S113127020415245203A0020456E746572204D414C
S11312804E474F455320415641494C41424C453A03
S11312900056414C5545532053484F554C44204229
S11312A045204245545745454E20303030302D3985
S11312B0393939004F52414E47455320415641492F
S11312C04C41424C4520415245203A0020456E7421
S11312D06572204F52414E47455320415641494C77
S11312E041424C453A0056414C5545532053484FD2
S11312F0554C44204245204245545745454E2030E4
S11313003030302D39393939005052455353204546
S11313104E54455220544F20434F4E54494E554548
S113132000504C4541534520464952535420434FA5
S11313304E4649475552452054484520504C414E4D
S11313405400507265737320456E74657220746F17
S113135020436F6E74696E75653B00496E76616CEF
S11313606964204F7074696F6E2C20547279204127
S11313706761696E202831202D2034293B00696E75
S113138076616C696420696E7075740050524553BF
S11313905320454E54455220544F20434845434B17
S11313A0204D454E552E2E203A00504C414E54208F
S11313B0434F4E46494755524154494F4E20434F9F
S11313C04D504C455445205052455353204255549A
S11313D0544F4E204F4E2054484520504C414E54BB
S11313E020544F2044495350454E534520494E20E4
S11313F0424F54544C4553203A006C6974726573DF
S11314000054484520564F4C554D452054484154AE
S11314102057494C4C204245204C454654204146D7
S11314205445522044495350454E53494E47204950
S1131430533A006C697472657300564F4C554D45B0
S1131440204F4620424F54544C455320494E50554A
S1131450542049533A00626F74746C657300424FB0
S113146054544C455320544841542043414E204247
S1131470452046494C4C454420574954482054483B
S11314804520415641494C41424C45204452494E25
S11314904B3A00534F5252592E2E204C4951554924
S11314A044204953204E4F5420454E4F5547480041
S11314B0456E74657220746865206E756D62657220
S11314C0206F6620626F74746C657320796F752069
S11314D077616E7420746F2066696C6C3A005052A8
S11314E045535320454E54455220544F20434845BC
S11314F0434B204D454E552E2E203A00504C414E24
S11315005420434F4E46494755524154494F4E206B
S1131510434F4D504C45544520505245535320425F
S11315205554544F4E204F4E2054484520504C4162
S11315304E5420544F2044495350454E534520495E
S11315404E20424F54544C4553203A00206C697449
S11315507265730054484520564F4C554D452054F0
S11315604841542057494C4C204245204C45465450
S11315702041465445522044495350454E53494E08
S1131580472049533A002020626F74746C657300DD
S11315904E554D424552204F4620424F54544C45DF
S11315A0532046524F4D20494E50555420564F4CCF
S11315B0554D45204953203A00456E746572207498
S11315C0686520766F6C756D6520796F752077611D
S11315D06E7420746F2064697370656E736520691E
S11315E06E206C69747265732E2E2E206D61783DA9
S11315F031353000796F75722063686F69636520D7
S11316006973200043686F6F7365203120746F2005
S1131610656E74657220746865206E756D6265729E
S1131620206F6620626F74746C657320746F20661B
S1131630696C6C0043686F6F7365203020746F2091
S1131640656E7465722074686520766F6C756D655F
S113165020746F2064697370656E736500546865E7
S1131660206D616368696E652077696C6C206265C2
S11316702064697370656E73696E67203530306DF0
S11316806C20626F74746C65732E00707265737372
S113169020656E74657220746F20636F6E74696E5A
S11316A0756520676F206261636B20746F206D65C0
S11316B06E752E2E00696E76616C696420696E7099
S11316C0757400505245535320454E54455220548E
S11316D04F20434845434B204D454E552E2E005038
S11316E04C414E5420434F4E46494755524154496C
S11316F04F4E20434F4D504C455445205052455376
S11317005320425554544F4E204F4E2054484520A8
S1131710504C414E5420544F2044495350454E534D
S11317204520494E20424F54544C4553203A006CB6
S113173069747265730054484520564F4C554D45A5
S113174020544841542057494C4C204245204C4594
S113175046543A006C69747265730020564F4C55B8
S11317604D45204F4620424F54544C455320494E3A
S11317705055542049533A00626F74746C65730079
S1131780424F54544C455320544841542043414EF5
S11317902042452046494C4C454420574954482052
S11317A054484520415641494C41424C45204452FD
S11317B0494E4B3A00534F52525920544845204207
S11317C04F54544C455320594F55204841564520B9
S11317D0494E505554204152454E5420454E4F5584
S11317E0474800456E74657220746865206E756D97
S11317F0626572206F6620626F74746C6573207901
S11318006F752077616E7420746F2066696C6C3A12
S113181000505245535320454E54455220544F20B6
S1131820434845434B204D454E552E2E00504C41C8
S11318304E5420434F4E46494755524154494F4E0A
S113184020434F4D504C455445205052455353204E
S1131850425554544F4E204F4E2054484520504C2E
S1131860414E5420544F2044495350454E53452033
S1131870494E20424F54544C4553203A006C6974ED
S11318807265730054484520564F4C554D452049C8
S11318904E204C49545245532054484154205749F2
S11318A04C4C204245204C45465420414654455218
S11318B02044495350454E53494E47204953202014
S11318C03A00626F74746C6573004E554D42455214
S11318D0204F4620424F54544C45532054484154C1
S11318E02043414E2042452046494C4C4544205714
S11318F0495448205448452053454C454354454495
S113190020564F4C554D453A00456E74657220740F
S1131910686520766F6C756D6520796F75207761C9
S11319206E7420746F2064697370656E73652069CA
S11319306E206C6974726573202E2E6D61783D3152
S1131940353000796F75722063686F69636520694B
S113195073200043686F6F7365203120746F2065B6
S11319606E74657220746865206E756D6265722090
S11319706F6620626F74746C657320746F2066697F
S11319806C6C0043686F6F7365203020746F206542
S11319906E7465722074686520766F6C756D652051
S11319A0746F2064697370656E7365005468652094
S11319B06D616368696E652077696C6C206265206F
S11319C064697370656E73696E67203330306D6C53
S11319D020626F74746C65732E00202053656C65EF
S11319E06374204F7074696F6E20282031202D207D
S11319F03220293A20002032203A3530306D6C2EC6
S1131A00002031203A3330306D6C202E0020504CB1
S1131A10454153452053454C45435420424F54546B
S1131A204C452053495A452E000011241FBECFEFC8
S1131A30D0E1DEBFCDBF11E0A0E0B1E0EAEAFCE511
S1131A4000E00BBF02C007900D92A23EB107D9F788
S1131A5022E0A2EEB1E001C01D92A43DB207E1F77D
S1131A600E941D290C94532E0C9400001F9A89EF98
S1131A7090E00197F1F700C000001F9889EF90E013
S1131A800197F1F700C000000895CF93DF938FEF23
S1131A908093610013B8C2E6D0E08FE08883E6DF6C
S1131AA08FE18883E3DF8FE38883E0DF81E088834D
S1131AB0DDDFDF91CF91089581E080936200D6CF7E
S1131AC008951D9A80936200D1DF83B1807C83B92D
S1131AD008950F931F93CF93FC018081882359F0BD
S1131AE08F01C0E090E0EDDFCF5FF801EC0FF11D56
S1131AF080818111F7CFCF911F910F9108958CE0D0
S1131B0082BB2FE38DE093E0215080409040E1F7C9
S1131B1000C0000086E082BB2FE38DE093E02150FB
S1131B2080409040E1F700C0000083E082BB2FE3D7
S1131B308DE093E0215080409040E1F700C0000028
S1131B4089E082BB2FE38DE093E0215080409040F8
S1131B50E1F700C0000008951F920F920FB60F9294
S1131B6011248F9380917F028F5F80937F0280374F
S1131B7040F080917E028F5F80937E0212BE1092AD
S1131B807F028F910F900FBE0F901F901895F894BD
S1131B9083B7846083BF12BE87B7816087BF7894A0
S1131BA008959093900089B988E98AB98EE080936A
S1131BB0950008955F9BFECF8CB108955D9BFECF89
S1131BC08CB90895CF93DF93EC01FC0184918823B1
S1131BD041F0FE0121968491F1DFFE01849181118F
S1131BE0F8CFDF91CF910895CF93DF93EC018881F3
S1131BF0882329F02196E2DF89918111FCCFDF91BE
S1131C00CF9108956091C4027091C5024AE090E0BA
S1131C100E940B2E8091C4029091C502E5CF0895D5
S1131C20CF92DF92EF92FF920F931F93CF93DF93A4
S1131C308091C2029091C302892BC9F480919602CB
S1131C4090919702892B99F480918A0290918B024A
S1131C50892B69F48091C8029091C902892B39F4C7
S1131C608091B6029091B702892B09F41EC58DE0CC
S1131C70A5DF8AE0A3DF8DE09AE1A4DF8DE09EDF9B
S1131C808AE09CDF81E09AE19DDF8DE097DF8AE0C6
S1131C9095DF86EF99E196DF8DE090DF8AE08EDFB5
S1131CA08AED99E18FDF8DE089DF8AE087DF80E2CA
S1131CB085DF80DF80938C028DE080DF8AE07EDF29
S1131CC080918C02813321F0823309F469C2DEC42D
S1131CD08DE074DF8AE072DF8AE999E9A9E9BEE35D
S1131CE08093860290938702A0938802B09389021E
S1131CF08CEA99E167DF8DE061DF8AE05FDF83E8EA
S1131D0099E160DF8DE05ADF8AE058DF83E599E1ED
S1131D1059DF8DE053DF8AE051DF80E24FDF4ADF95
S1131D208093AF024BDF8DE049DF8AE047DF80918B
S1131D30AF028F7090E090930D0280930C028DE0BF
S1131D403DDF8AE03BDF83E499E13CDF80910C02D4
S1131D5059DF8DE033DF8AE031DF80910C0290910E
S1131D600D02009709F0EEC089E099E12BDF8DE0C8
S1131D7025DF8AE023DF80E221DF1CDF8093AF02CE
S1131D801DDFCEE0D2E08091AF028F7090E09983A6
S1131D90888380E213DF0EDF8093AF020FDF809130
S1131DA0AF028F7090E09B838A8380E207DF02DFBB
S1131DB08093AF0203DF8091AF028F7090E09D8328
S1131DC08C838DE0FBDE8AE0F9DE4091A90250911C
S1131DD0AA029A01220F331F440F551F440F551FA7
S1131DE0440F551F240F351F88819981280F391FEF
S1131DF0C901880F991F220F331F220F331F220F8F
S1131E00331F820F931F2A813B81820F931F9C01F2
S1131E10220F331F880F991F880F991F880F991F4E
S1131E20820F931F0C80DD81C02DC80FD91FD09362
S1131E30AA02C093A902BE010D2E000C880B990BB7
S1131E400E94EC2C209186023091870240918802F6
S1131E50509189020E94512C0E94B92C7093B902AE
S1131E606093B80200E012E02AE030E0CB01B9014F
S1131E700E94DB2DD80115969C938E931497CB0169
S1131E80B9010E94DB2DF80193838283CB01B90150
S1131E900E94DB2D918380837093BB026093BA020E
S1131EA086E990E08C1B9D0BC4EFD1E0B9010E9440
S1131EB0DB2D9D838C83CB01B9010E94DB2D9B8399
S1131EC08A83CB01B9010E94DB2D998388837093A7
S1131ED0D3026093D2028DE071DE8AE06FDE8AEC79
S1131EE098E170DED8018C918DDEF80182818ADE62
S1131EF0D80114968C9186DE82EC98E163DE8DE045
S1131F005DDE8AE05BDE84E898E15CDE88817ADE6F
S1131F108A8178DE8C8176DE8DE798E153DE8DE070
S1131F204DDE8AE04BDE8DE049DE8AE047DE8DE25D
S1131F3098E148DE8DE042DE8AE040DE81E198E10E
S1131F4041DEC1C3019709F024C183EE97E13ADE73
S1131F508DE034DE8AE032DE2DDE8093AF022EDEA9
S1131F60CAEFD1E08091AF028F7090E099838883AB
S1131F7021DE8093AF0222DE8091AF028F7090E069
S1131F809B838A8317DE8093AF0218DE4091AF02F1
S1131F904F7050E05D834C836091D0027091D10208
S1131FA09B01220F331F660F771F660F771F660F83
S1131FB0771F260F371F88819981280F391FC90180
S1131FC0880F991F220F331F220F331F220F331F35
S1131FD0820F931F2A813B81820F931FEC01CC0F48
S1131FE0DD1F880F991F880F991F880F991F8C0F69
S1131FF09D1FEA01C80FD91FD093D102C093D0020C
S1132000D093B902C093B802C53FB1E0DB070CF42A
S11320103AC020E030E04AEF53E4609186027091C8
S1132020870280918802909189020E94782D0E94F3
S1132030B92C70939D0260939C02C0E0D2E01D8293
S11320401C821B821A8285E090E099838883109217
S1132050BB021092BA028DE0B1DD8AE0AFDD85EB00
S113206097E1B0DD8DE0AADD8AE0A8DD80E897E1A4
S1132070A9DD8881C7DD8A81C5DD8C81C3DD88E760
S113208097E1A0DD20C3BE010D2E000C880B990B37
S11320900E94EC2C209186023091870240918802A4
S11320A0509189020E94782D0E94B92C6B017C0109
S11320B0D0938302C09382027093A4026093A3021C
S11320C006E012E02AE030E0CB01B9010E94DB2DEA
S11320D0F80195838483CB01B9010E94DB2D93839E
S11320E08283CB01B9010E94DB2D9183808370939D
S11320F09D0260939C0286E990E08C199D09C4EFCF
S1132100D1E0B9010E94DB2D9D838C83CB01B90101
S11321100E94DB2D9B838A83CB01B9010E94DB2DB6
S1132120998388837093D3026093D2028DE046DD55
S11321308AE044DD8BE597E145DDD8018C9162DDD1
S1132140F80182815FDDD80114968C915BDD84E512
S113215097E138DD8DE032DD8AE030DD86E397E11A
S113216031DD88814FDD8A814DDD8C814BDD8FE24D
S113217097E128DD8DE022DD8AE020DD8FED96E118
S113218021DD8DE01BDD8AE019DD83EC96E11ADDAB
S11321909AC285EB96E116DD8BE896E113DD93C2D6
S11321A08DE00CDD8AE00ADD80E090E0A0E0BFE392
S11321B08093860290938702A0938802B093890249
S11321C08DE596E1FFDC8DE0F9DC8AE0F7DC84E361
S11321D096E1F8DC8DE0F2DC8AE0F0DC84E096E164
S11321E0F1DC8DE0EBDC8AE0E9DC80E2E7DCE2DCD8
S11321F08093AF02E3DC8DE0E1DC8AE0DFDC8091F8
S1132200AF028F7090E090930D0280930C028DE0EA
S1132210D5DC8AE0D3DC84EF95E1D4DC80910C0238
S1132220F1DC8DE0CBDC8AE0C9DC80910C0290917A
S11322300D02009709F0E7C089EB95E1C3DC8DE05E
S1132240BDDC8AE0BBDC80E2B9DCB4DC8093AF02A5
S1132250B5DCCEE0D2E08091AF028F7090E099833C
S1132260888380E2ABDCA6DC8093AF02A7DC80919C
S1132270AF028F7090E09B838A8380E29FDC9ADCBC
S11322808093AF029BDC8091AF028F7090E09D83BE
S11322908C838DE093DC8AE091DC4091A90250911B
S11322A0AA029A01220F331F440F551F440F551FD2
S11322B0440F551F240F351F88819981280F391F1A
S11322C0C901880F991F220F331F220F331F220FBA
S11322D0331F820F931F2A813B81820F931F9C011E
S11322E0220F331F880F991F880F991F880F991F7A
S11322F0820F931F0C80DD81C02DC80FD91FD0938E
S1132300AA02C093A902BE010D2E000C880B990BE2
S11323100E94EC2C20918602309187024091880221
S1132320509189020E94512C0E94B92C7093B902D9
S11323306093B80200E012E02AE030E0CB01B9017A
S11323400E94DB2DF80195838483CB01B9010E949F
S1132350DB2D93838283CB01B9010E94DB2D918312
S113236080837093BB026093BA0286E990E08C1B71
S11323709D0BC4EFD1E0B9010E94DB2D9D838C83BA
S1132380CB01B9010E94DB2D9B838A83CB01B90168
S11323900E94DB2D998388837093D3026093D202C9
S11323A08DE00CDC8AE00ADC80E995E10BDCD801E5
S11323B08C9128DCF801828125DCD80114968C915B
S11323C021DC86E895E1FEDB8DE0F8DB8AE0F6DBD4
S11323D084E595E1F7DB888115DC8A8113DC8C8147
S11323E011DC8CE495E1EEDB8DE0E8DB8AE0E6DBF2
S11323F08CEF94E1E7DB8DE0E1DB8AE0DFDB8EED5F
S113240094E1E0DB60C1019709F03CC180EB94E109
S1132410D9DB8DE0D3DB8AE0D1DBCCDB8093AF0268
S1132420CDDBCAEFD1E08091AF028F7090E0998349
S11324308883C0DB8093AF02C1DB8091AF028F70D1
S113244090E09B838A83B6DB8093AF02B7DB409135
S1132450AF024F7050E05D834C836091D002709165
S1132460D1029B01220F331F660F771F660F771F60
S1132470660F771F260F371F88819981280F391F10
S1132480C901880F991F220F331F220F331F220FF8
S1132490331F820F931F2A813B81820F931FEC010C
S11324A0CC0FDD1F880F991F880F991F880F991F64
S11324B08C0F9D1FEA01C80FD91FD093D102C0937E
S11324C0D002D093B902C093B802CD32B1E0DB0799
S11324D00CF43EC020E030E046E953E4609186020B
S11324E07091870280918802909189020E94782DD0
S11324F00E94B92C70939D0260939C02C0E0D2E0CC
S11325001D821C821B821A8283E090E09983888357
S11325101092BB021092BA028DE050DB8AE04EDBCF
S113252083E994E14FDB8DE049DB8AE047DB8EE50C
S113253094E148DB888166DB8A8164DB8C8162DB21
S113254086E594E13FDB8DE039DB8AE037DB1BC0B5
S1132550BE010D2E000C880B990B0E94EC2C2091CF
S113256086023091870240918802509189020E942C
S1132570782D0E94B92C70939D0260939C02D09395
S11325808302C0938202E0919C02F0919D02F09339
S1132590A402E093A30206E012E02AE030E0CF01B7
S11325A0B9010E94DB2DD80115969C938E93149744
S11325B0CB01B9010E94DB2DD80113969C938E9315
S11325C01297CB01B9010E94DB2DD8018D939C9306
S11325D070939D0260939C0286E990E08E1B9F0B92
S11325E0C4EFD1E0B9010E94DB2D9D838C83CB0124
S11325F0B9010E94DB2D9B838A83CB01B9010E9420
S1132600DB2D998388837093D3026093D2028DE08B
S1132610D5DA8AE0D3DA8AE394E1D4DAF801808166
S1132620F1DAD80112968C91EDDAF8018481EADAB4
S113263083E394E1C7DA8DE0C1DA8AE0BFDA8DE0A2
S1132640BDDA8AE0BBDA81E094E1BCDA8881DADAC7
S11326508A81D8DA8C81D6DA8AEF93E1B3DA8DE015
S1132660ADDA8AE0ABDA8DE0A9DA8AE0A7DA8AEAA1
S113267093E1A8DA8DE0A2DA8AE0A0DA8CE893E1AB
S1132680A1DA21C08EE793E19DDA1DC08DE096DAD0
S11326908AE094DA8BE593E195DA8DE08FDA8AE0CB
S11326A08DDA82E493E18EDA0EC08DE087DA8AE077
S11326B085DA81E293E186DA8DE080DA8AE07EDAF7
S11326C089E093E17FDADF91CF911F910F91FF9021
S11326D0EF90DF90CF900895CF93DF9390E0FC01CB
S11326E0F197E830F10510F00C946C28EA5BFF4F89
S11326F00C94EE2D8DE062DA8AE060DA8FE493ECDC
S11327000197F1F700C000008DE058DA8AE056DA4C
S113271086EE92E157DA8DE051DA8AE04FDA8CECFA
S113272092E150DA8DE04ADA8AE048DA80E246DA69
S113273041DA8093AF0242DAC6E7D2E08091AF0279
S11327408F7090E09983888380E238DA33DA80935B
S1132750AF0234DA8091AF028F7090E09B838A835A
S113276080E22CDA27DA8093AF0228DA8091AF0274
S11327708F7090E09D838C8380E220DA1BDA809353
S1132780AF021CDA8091AF028F7090E09F838E833A
S11327908091B6029091B702FE016EE772E021913A
S11327A03191AC01440F551F880F991F880F991F51
S11327B0880F991F840F951F820F931FE617F70741
S11327C071F79093B7028093B6028DE0F7D98AE04F
S11327D0F5D984EB92E1F6D9C6E7D2E0888112DA22
S11327E08A8110DA8C810EDA8E810CDA8DE0E6D9DA
S11327F08AE0E4D98DE0E2D98AE0E0D98FE493EC71
S11328000197F1F700C000008DE0D8D98AE0D6D94D
S113281081E992E1D7D98DE0D1D98AE0CFD987E790
S113282092E1D0D98DE0CAD98AE0C8D980E2C6D96C
S1132830C1D98093AF02C2D9CEE6D2E08091AF0273
S11328408F7090E09983888380E2B8D9B3D980935C
S1132850AF02B4D98091AF028F7090E09B838A83DA
S113286080E2ACD9A7D98093AF02A8D98091AF02F6
S11328708F7090E09D838C8380E2A0D99BD9809354
S1132880AF029CD98091AF028F7090E09F838E83BA
S113289080918A0290918B02FE0166E772E0219199
S11328A03191AC01440F551F880F991F880F991F50
S11328B0880F991F840F951F820F931FE617F70740
S11328C071F790938B0280938A028DE077D98AE026
S11328D075D98FE592E176D9CEE6D2E0888192D996
S11328E08A8190D98C818ED98E818CD98DE066D9DC
S11328F08AE064D98DE062D98AE060D98FE493ECF0
S11329000197F1F700C000008DE058D98AE056D94C
S11329108CE392E157D98DE051D98AE04FD98FE108
S113292092E150D98DE04AD98AE048D980E246D96B
S113293041D98093AF0242D9CEE5D2E08091AF0273
S11329408F7090E09983888380E238D933D980935B
S1132950AF0234D98091AF028F7090E09B838A8359
S113296080E22CD927D98093AF0228D98091AF0275
S11329708F7090E09D838C8380E220D91BD9809353
S1132980AF021CD98091AF028F7090E09F838E8339
S11329908091C8029091C902FE0166E672E021911D
S11329A03191AC01440F551F880F991F880F991F4F
S11329B0880F991F840F951F820F931FE617F7073F
S11329C071F79093C9028093C8028DE0F7D88AE02A
S11329D0F5D884E092E1F6D8CEE5D2E0888112D928
S11329E08A8110D98C810ED98E810CD98DE0E6D8DC
S11329F08AE0E4D88DE0E2D88AE0E0D88FE493EC72
S1132A000197F1F700C000008DE0D8D88AE0D6D84D
S1132A1081EE91E1D7D88DE0D1D88AE0CFD888EC87
S1132A2091E1D0D88DE0CAD88AE0C8D880E2C6D86F
S1132A30C1D88093AF02C2D8C6E5D2E08091AF027C
S1132A408F7090E09983888380E2B8D8B3D880935C
S1132A50AF02B4D88091AF028F7090E09B838A83D9
S1132A6080E2ACD8A7D88093AF02A8D88091AF02F7
S1132A708F7090E09D838C8380E2A0D89BD8809354
S1132A80AF029CD88091AF028F7090E09F838E83B9
S1132A908091C2029091C302FE016EE572E0219121
S1132AA03191AC01440F551F880F991F880F991F4E
S1132AB0880F991F840F951F820F931FE617F7073E
S1132AC071F79093C3028093C2028DE077D88AE0B5
S1132AD075D881EB91E176D8C6E5D2E0888192D8A9
S1132AE08A8190D88C818ED88E818CD88DE066D8DE
S1132AF08AE064D88DE062D88AE060D88FE493ECF1
S1132B000197F1F700C000008DE058D88AE056D84C
S1132B108EE891E157D88DE051D88AE04FD885E707
S1132B2091E150D88DE04AD88AE048D880E246D86E
S1132B3041D88093AF0242D8C6E6D2E08091AF027A
S1132B408F7090E09983888380E238D833D880935B
S1132B50AF0234D88091AF028F7090E09B838A8358
S1132B6080E22CD827D88093AF0228D88091AF0276
S1132B708F7090E09D838C8380E220D81BD8809353
S1132B80AF021CD88091AF028F7090E09F838E8338
S1132B908091960290919702FE016EE672E0219177
S1132BA03191AC01440F551F880F991F880F991F4D
S1132BB0880F991F840F951F820F931FE617F7073D
S1132BC071F790939702809396028DE00E94DE0D38
S1132BD08AE00E94DE0D8EE591E10E94E20DC6E6D8
S1132BE0D2E088810FD88A810DD88C810BD88E8150
S1132BF009D88DE00E94DE0D8AE00E94DE0D8DE092
S1132C000E94DE0D8AE00E94DE0D80E491E10E94C4
S1132C10E20D8DE00E94DE0D8AE00E94DE0D84E16B
S1132C2091E10E94E20D8DE00E94DE0D8AE00E9497
S1132C30DE0D88EE90E10E94E20D8DE00E94DE0D33
S1132C408AE00E94DE0D8FEB90E10E94E20D8DE0A0
S1132C500E94DE0D8AE00E94DE0D84E990E10E946C
S1132C60E20D8DE00E94DE0D8AE00E94DE0D89E611
S1132C7090E10E94E20D8DE00E94DE0D8AE00E9448
S1132C80DE0D8DE490E10E94E20D8DE00E94DE0DE8
S1132C908AE00E94DE0D86E990E09093BF02809363
S1132CA0BE0280E20E94DE0D0E94DA0D8093A00233
S1132CB08DE00E94DE0D8AE00E94DE0D8091A0026C
S1132CC0833309F4F0C538F4813379F0823309F49D
S1132CD0FEC20C942C25843311F40C94441F8533C8
S1132CE011F40C942F220C942C258DE00E94DE0DFF
S1132CF08AE00E94DE0D8FE493EC0197F1F700C0A7
S1132D00000080919602909197028093A50290937F
S1132D10A602ECE1F2E0C4E1D2E02AE030E0B9013D
S1132D200E94DB2D92938293862F972FEC17FD0739
S1132D30B1F76093B2027093B3028DE00E94DE0D8E
S1132D408AE00E94DE0D89E190E10E94E20D8DE0AF
S1132D500E94DE0D8AE00E94DE0D8AEE9FE00E9452
S1132D60E20D8DE00E94DE0D8AE00E94DE0D8AEC09
S1132D709FE00E94E20D8DE00E94DE0D8AE00E9439
S1132D80DE0D8DE00E94DE0D8AE00E94DE0D80E201
S1132D900E94DE0D0E94DA0D8093AF020E94DE0DC8
S1132DA0C2E5D2E08091AF028F7090E0998388836E
S1132DB080E20E94DE0D0E94DA0D8093AF020E9431
S1132DC0DE0D2091AF022F70622F70E07B836A8347
S1132DD02091CC023091CD02C901880F991F220F96
S1132DE0331F220F331F220F331F820F931F48817B
S1132DF05981840F951F9C01220F331F880F991F3F
S1132E00880F991F880F991F820F931F9B01280F0A
S1132E10391F3093CD022093CC0262EE6203A001ED
S1132E20639F500D11248091B6029091B702840FD4
S1132E30951F9093810280938002ECE3F2E0C4E357
S1132E40D2E02AE030E0B9010E94DB2D9293829314
S1132E50862F972FEC17FD07B1F79093C10280934B
S1132E60C0028DE00E94DE0D8AE00E94DE0D82EB3E
S1132E709FE00E94E20DC4E3D2E088810E94020E2A
S1132E808A810E94020E8C810E94020E8E810E9411
S1132E90020E8DE00E94DE0D8AE00E94DE0D8DE0C0
S1132EA00E94DE0D8AE00E94DE0D86E99FE00E940A
S1132EB0E20DC2E5D2E088810E94020E8A810E945E
S1132EC0020E8DE00E94DE0D8AE00E94DE0D86E790
S1132ED09FE00E94E20D8DE00E94DE0D8AE00E94D8
S1132EE0DE0D8DE00E94DE0D8AE00E94DE0D80E2A0
S1132EF00E94DE0D0E94DA0D8093AF020E94DE0D67
S1132F00CEE4D2E08091AF028F7090E09983888301
S1132F1080E20E94DE0D0E94DA0D8093AF020E94CF
S1132F20DE0D2091AF022F70622F70E07B836A83E5
S1132F302091CA023091CB02C901880F991F220F38
S1132F40331F220F331F220F331F820F931F488119
S1132F505981840F951F9C01220F331F880F991FDD
S1132F60880F991F880F991F820F931F9B01280FA9
S1132F70391F3093CB022093CA0262EE6203A00190
S1132F80639F500D112480918A0290918B02840FCB
S1132F90951F9093850280938402E4E3F2E0CCE2EF
S1132FA0D2E02AE030E0B9010E94DB2D92938293B3
S1132FB0862F972FEC17FD07B1F79093900280931B
S1132FC08F028DE00E94DE0D8AE00E94DE0D8EE508
S1132FD09FE00E94E20DCCE2D2E088810E94020EC2
S1132FE08A810E94020E8C810E94020E8E810E94B0
S1132FF0020E8DE00E94DE0D8AE00E94DE0D8DE05F
S11330000E94DE0D8AE00E94DE0D81E49FE00E94B2
S1133010E20DCEE4D2E088810E94020E8A810E94F1
S1133020020E8DE00E94DE0D8AE00E94DE0D8EE12C
S11330309FE00E94E20D8DE00E94DE0D8AE00E9476
S1133040DE0D80E20E94DE0D0E94DA0D8093AF0255
S11330500E94DE0DC6E4D2E08091AF028F7090E052
S11330609983888380E20E94DE0D0E94DA0D8093AA
S1133070AF020E94DE0D2091AF022F70622F70E02C
S11330807B836A8320919A0230919B02C901880F45
S1133090991F220F331F220F331F220F331F820F5A
S11330A0931F48815981840F951F9C01220F331F60
S11330B0880F991F880F991F880F991F820F931FDC
S11330C09B01280F391F30939B0220939A0262EED2
S11330D06203A001639F500D11248091C802909156
S11330E0C902840F951F9093B1028093B002E4E269
S11330F0F2E0CCE1D2E02AE030E0B9010E94DB2D1D
S113310092938293862F972FEC17FD07B1F7909334
S1133110C7028093C6028DE00E94DE0D8AE00E9401
S1133120DE0D83E09FE00E94E20DCCE1D2E08881D5
S11331300E94020E8A810E94020E8C810E94020E5D
S11331408E810E94020E8DE00E94DE0D8AE00E94B4
S1133150DE0D83EE9EE00E94E20DC6E4D2E088819B
S11331600E94020E8A810E94020E8DE00E94DE0DF2
S11331708AE00E94DE0D84EC9EE00E94E20D8DE068
S11331800E94DE0D8AE00E94DE0D8DE00E94DE0DBD
S11331908AE00E94DE0D80E20E94DE0D0E94DA0DBC
S11331A08093AF020E94DE0DC2E4D2E08091AF02B0
S11331B08F7090E09983888380E20E94DE0D0E94E4
S11331C0DA0D8093AF020E94DE0D2091AF022F70C2
S11331D0622F70E07B836A83209191023091920286
S11331E0C901880F991F220F331F220F331F220F8B
S11331F0331F820F931F48815981840F951F9C01AF
S1133200220F331F880F991F880F991F880F991F4A
S1133210820F931F9B01280F391F30939202209332
S1133220910262EE6203A001639F500D112480910C
S1133230C2029091C302840F951F9093CF02809392
S1133240CE02ECE2F2E0C4E2D2E02AE030E0B901DE
S11332500E94DB2D92938293862F972FEC17FD0704
S1133260B1F79093B5028093B4028DE00E94DE0D15
S11332708AE00E94DE0D8DEA9EE00E94E20DC4E227
S1133280D2E088810E94020E8A810E94020E8C8103
S11332900E94020E8E810E94020E8DE00E94DE0DBD
S11332A08AE00E94DE0D8DE00E94DE0D8AE00E941D
S11332B0DE0D81E99EE00E94E20DC2E4D2E0888145
S11332C00E94020E8A810E94020E0C9440258DE019
S11332D00E94DE0D8AE00E94DE0D8FE493EC0197DC
S11332E0F1F700C000008091C2029091C302809364
S11332F0CE029093CF02ECE2F2E0C4E2D2E02AE004
S113330030E0B9010E94DB2D92938293862F972F90
S1133310EC17FD07B1F76093B4027093B5028DE02A
S11333200E94DE0D8AE00E94DE0D8DE59EE00E9483
S1133330E20D8DE00E94DE0D8AE00E94DE0D8DE23A
S11333409EE00E94E20D8DE00E94DE0D8AE00E9464
S1133350DE0D8DE09EE00E94E20D8DE00E94DE0D08
S11333608AE00E94DE0D8DE00E94DE0D8AE00E945C
S1133370DE0D80E20E94DE0D0E94DA0D8093AF0222
S11333800E94DE0DC2E5D2E08091AF028F7090E022
S11333909983888380E20E94DE0D0E94DA0D809377
S11333A0AF020E94DE0D2091AF022F70622F70E0F9
S11333B07B836A832091CC023091CD02C901880FAE
S11333C0991F220F331F220F331F220F331F820F27
S11333D0931F48815981840F951F9C01220F331F2D
S11333E0880F991F880F991F880F991F820F931FA9
S11333F09B01280F391F3093CD022093CC0262EE3B
S11334006203A001639F500D11248091B602909134
S1133410B702840F951F9093810280938002ECE39E
S1133420F2E0C4E3D2E02AE030E0B9010E94DB2DEF
S113343092938293862F972FEC17FD07B1F7909301
S1133440C1028093C0028DE00E94DE0D8AE00E94DA
S1133450DE0D85EF9DE00E94E20DC4E3D2E0888199
S11334600E94020E8A810E94020E8C810E94020E2A
S11334708E810E94020E8DE00E94DE0D8AE00E9481
S1133480DE0D89ED9DE00E94E20DC2E5D2E0888167
S11334900E94020E8A810E94020E8DE00E94DE0DBF
S11334A08AE00E94DE0D89EB9DE00E94E20D8DE032
S11334B00E94DE0D8AE00E94DE0D8DE00E94DE0D8A
S11334C08AE00E94DE0D80E20E94DE0D0E94DA0D89
S11334D08093AF020E94DE0DCEE4D2E08091AF0271
S11334E08F7090E09983888380E20E94DE0D0E94B1
S11334F0DA0D8093AF020E94DE0D2091AF022F708F
S1133500622F70E07B836A832091CA023091CB02E0
S1133510C901880F991F220F331F220F331F220F57
S1133520331F820F931F48815981840F951F9C017B
S1133530220F331F880F991F880F991F880F991F17
S1133540820F931F9B01280F391F3093CB022093C6
S1133550CA0262EE6203A001639F500D11248091A0
S11335608A0290918B02840F951F90938502809319
S11335708402E4E3F2E0CCE2D2E02AE030E0B901F4
S11335800E94DB2D92938293862F972FEC17FD07D1
S1133590B1F79093900280938F028DE00E94DE0D2C
S11335A08AE00E94DE0D81EA9DE00E94E20DCCE2F9
S11335B0D2E088810E94020E8A810E94020E8C81D0
S11335C00E94020E8E810E94020E8DE00E94DE0D8A
S11335D08AE00E94DE0D8DE00E94DE0D8AE00E94EA
S11335E0DE0D84E89DE00E94E20DCEE4D2E0888105
S11335F00E94020E8A810E94020E8DE00E94DE0D5E
S11336008AE00E94DE0D81E69DE00E94E20D8DE0DD
S11336100E94DE0D8AE00E94DE0D80E20E94DE0D33
S11336200E94DA0D8093AF020E94DE0DC6E4D2E060
S11336308091AF028F7090E09983888380E20E942A
S1133640DE0D0E94DA0D8093AF020E94DE0D209100
S1133650AF022F70622F70E07B836A8320919A02FD
S113366030919B02C901880F991F220F331F220F2B
S1133670331F220F331F820F931F48815981840FF8
S1133680951F9C01220F331F880F991F880F991FC4
S1133690880F991F820F931F9B01280F391F3093A6
S11336A09B0220939A0262EE6203A001639F500D75
S11336B011248091C8029091C902840F951F9093A0
S11336C0B1028093B002E4E2F2E0CCE1D2E02AE07D
S11336D030E0B9010E94DB2D92938293862F972FBD
S11336E0EC17FD07B1F79093C7028093C6028DE0F3
S11336F00E94DE0D8AE00E94DE0D86E49DE00E94B9
S1133700E20DCCE1D2E088810E94020E8A810E94FF
S1133710020E8C810E94020E8E810E94020E8DE0A8
S11337200E94DE0D8AE00E94DE0D86E29DE00E948A
S1133730E20DC6E4D2E088810E94020E8A810E94D2
S1133740020E8DE00E94DE0D8AE00E94DE0D87E00D
S11337509DE00E94E20D8DE00E94DE0D8AE00E9451
S1133760DE0D8DE00E94DE0D8AE00E94DE0D80E217
S11337700E94DE0D0E94DA0D8093AF020E94DE0DDE
S1133780CAE4D2E08091AF028F7090E0998388837D
S113379080E20E94DE0D0E94DA0D8093AF020E9447
S11337A0DE0D2091AF022F70622F70E07B836A835D
S11337B02091AB023091AC02C901880F991F220FEE
S11337C0331F220F331F220F331F820F931F488191
S11337D05981840F951F9C01220F331F880F991F55
S11337E0880F991F880F991F820F931F9B01280F21
S11337F0391F3093AC022093AB0262EE6203A00146
S1133800639F500D11248091960290919702840F2A
S1133810951F9093A6028093A502ECE1F2E0C4E127
S1133820D2E02AE030E0B9010E94DB2D929382932A
S1133830862F972FEC17FD07B1F79093B30280936F
S1133840B2028DE00E94DE0D8AE00E94DE0D80EF60
S11338509CE00E94E20DC4E1D2E088810E94020E45
S11338608A810E94020E8C810E94020E8E810E9427
S1133870020E8DE00E94DE0D8AE00E94DE0D8DE0D6
S11338800E94DE0D8AE00E94DE0D84ED9CE00E9421
S1133890E20DCAE4D2E088810E94020E8A810E946D
S11338A0020E0C9440258DE00E94DE0D8AE00E94F9
S11338B0DE0D8FE493EC0197F1F700C000008091D6
S11338C0C8029091C9028093B0029093B102E4E2DD
S11338D0F2E0CCE1D2E02AE030E0B9010E94DB2D35
S11338E092938293862F972FEC17FD07B1F760937D
S11338F0C6027093C7028DE00E94DE0D8AE00E942A
S1133900DE0D80EA9CE00E94E20D8DE00E94DE0D57
S11339108AE00E94DE0D81E79CE00E94E20D8DE0CA
S11339200E94DE0D8AE00E94DE0D81E59CE00E948B
S1133930E20D8DE00E94DE0D8AE00E94DE0D8DE036
S11339400E94DE0D8AE00E94DE0D80E20E94DE0D00
S11339500E94DA0D8093AF020E94DE0DC2E5D2E030
S11339608091AF028F7090E09983888380E20E94F7
S1133970DE0D0E94DA0D8093AF020E94DE0D2091CD
S1133980AF022F70622F70E07B836A832091CC0298
S11339903091CD02C901880F991F220F331F220FC6
S11339A0331F220F331F820F931F48815981840FC5
S11339B0951F9C01220F331F880F991F880F991F91
S11339C0880F991F820F931F9B01280F391F309373
S11339D0CD022093CC0262EE6203A001639F500DDE
S11339E011248091B6029091B702840F951F909391
S11339F0810280938002ECE3F2E0C4E3D2E02AE0A7
S1133A0030E0B9010E94DB2D92938293862F972F89
S1133A10EC17FD07B1F79093C1028093C0028DE0CB
S1133A200E94DE0D8AE00E94DE0D89E39CE00E9484
S1133A30E20DC4E3D2E088810E94020E8A810E94D2
S1133A40020E8C810E94020E8E810E94020E8DE075
S1133A500E94DE0D8AE00E94DE0D8DE19CE00E9452
S1133A60E20DC2E5D2E088810E94020E8A810E94A2
S1133A70020E8DE00E94DE0D8AE00E94DE0D8DEFC5
S1133A809BE00E94E20D8DE00E94DE0D8AE00E9420
S1133A90DE0D8DE00E94DE0D8AE00E94DE0D80E2E4
S1133AA00E94DE0D0E94DA0D8093AF020E94DE0DAB
S1133AB0CEE4D2E08091AF028F7090E09983888346
S1133AC080E20E94DE0D0E94DA0D8093AF020E9414
S1133AD0DE0D2091AF022F70622F70E07B836A832A
S1133AE02091CA023091CB02C901880F991F220F7D
S1133AF0331F220F331F220F331F820F931F48815E
S1133B005981840F951F9C01220F331F880F991F21
S1133B10880F991F880F991F820F931F9B01280FED
S1133B20391F3093CB022093CA0262EE6203A001D4
S1133B30639F500D112480918A0290918B02840F0F
S1133B40951F9093850280938402E4E3F2E0CCE233
S1133B50D2E02AE030E0B9010E94DB2D92938293F7
S1133B60862F972FEC17FD07B1F79093900280935F
S1133B708F028DE00E94DE0D8AE00E94DE0D85EE4C
S1133B809BE00E94E20DCCE2D2E088810E94020E0A
S1133B908A810E94020E8C810E94020E8E810E94F4
S1133BA0020E8DE00E94DE0D8AE00E94DE0D8DE0A3
S1133BB00E94DE0D8AE00E94DE0D88EC9BE00E94EC
S1133BC0E20DCEE4D2E088810E94020E8A810E9436
S1133BD0020E8DE00E94DE0D8AE00E94DE0D89EA6D
S1133BE09BE00E94E20D8DE00E94DE0D8AE00E94BF
S1133BF0DE0D8DE00E94DE0D8AE00E94DE0D80E283
S1133C000E94DE0D0E94DA0D8093AF020E94DE0D49
S1133C10C2E4D2E08091AF028F7090E099838883F0
S1133C2080E20E94DE0D0E94DA0D8093AF020E94B2
S1133C30DE0D2091AF022F70622F70E07B836A83C8
S1133C402091910230919202C901880F991F220F8D
S1133C50331F220F331F220F331F820F931F4881FC
S1133C605981840F951F9C01220F331F880F991FC0
S1133C70880F991F880F991F820F931F9B01280F8C
S1133C80391F309392022093910262EE6203A001E5
S1133C90639F500D11248091C2029091C302840F3E
S1133CA0951F9093CF028093CE02ECE2F2E0C4E23F
S1133CB0D2E02AE030E0B9010E94DB2D9293829396
S1133CC0862F972FEC17FD07B1F79093B5028093D9
S1133CD0B4028DE00E94DE0D8AE00E94DE0D82E9CE
S1133CE09BE00E94E20DC4E2D2E088810E94020EB1
S1133CF08A810E94020E8C810E94020E8E810E9493
S1133D00020E8DE00E94DE0D8AE00E94DE0D82E745
S1133D109BE00E94E20DC2E4D2E088810E94020E80
S1133D208A810E94020E8DE00E94DE0D8AE00E94CC
S1133D30DE0D83E59BE00E94E20D8DE00E94DE0D26
S1133D408AE00E94DE0D8DE00E94DE0D8AE00E9472
S1133D50DE0D80E20E94DE0D0E94DA0D8093AF0238
S1133D600E94DE0DCAE4D2E08091AF028F7090E031
S1133D709983888380E20E94DE0D0E94DA0D80938D
S1133D80AF020E94DE0D2091AF022F70622F70E00F
S1133D907B836A832091AB023091AC02C901880F06
S1133DA0991F220F331F220F331F220F331F820F3D
S1133DB0931F48815981840F951F9C01220F331F43
S1133DC0880F991F880F991F880F991F820F931FBF
S1133DD09B01280F391F3093AC022093AB0262EE93
S1133DE06203A001639F500D11248091960290916B
S1133DF09702840F951F9093A6028093A502ECE18D
S1133E00F2E0C4E1D2E02AE030E0B9010E94DB2D07
S1133E1092938293862F972FEC17FD07B1F7909317
S1133E20B3028093B2028DE00E94DE0D8AE00E940C
S1133E30DE0D8CE39BE00E94E20DC4E1D2E08881B8
S1133E400E94020E8A810E94020E8C810E94020E40
S1133E508E810E94020E8DE00E94DE0D8AE00E9497
S1133E60DE0D8DE00E94DE0D8AE00E94DE0D80E210
S1133E709BE00E94E20DCAE4D2E088810E94020E17
S1133E808A810E94020EFCC58DE00E94DE0D8AE04C
S1133E900E94DE0D8FE493EC0197F1F700C000005F
S1133EA080918A0290918B02809384029093850280
S1133EB0E4E3F2E0CCE2D2E02AE030E0B9010E948F
S1133EC0DB2D92938293862F972FEC17FD07B1F782
S1133ED060938F02709390028DE00E94DE0D8AE061
S1133EE00E94DE0D8CEE9AE00E94E20D8DE00E94AD
S1133EF0DE0D8AE00E94DE0D8EEB9AE00E94E20D58
S1133F008DE00E94DE0D8AE00E94DE0D8EE99AE0CB
S1133F100E94E20D8DE00E94DE0D8AE00E94DE0D1B
S1133F208DE00E94DE0D8AE00E94DE0D80E20E9498
S1133F30DE0D0E94DA0D8093AF020E94DE0DC2E511
S1133F40D2E08091AF028F7090E09983888380E201
S1133F500E94DE0D0E94DA0D8093AF020E94DE0DF6
S1133F602091AF022F70622F70E07B836A832091CF
S1133F70CC023091CD02C901880F991F220F331F43
S1133F80220F331F220F331F820F931F4881598141
S1133F90840F951F9C01220F331F880F991F880FD0
S1133FA0991F880F991F820F931F9B01280F391F98
S1133FB03093CD022093CC0262EE6203A001639F92
S1133FC0500D11248091B6029091B702840F951F71
S1133FD09093810280938002ECE3F2E0C4E3D2E0A8
S1133FE02AE030E0B9010E94DB2D92938293862F60
S1133FF0972FEC17FD07B1F79093C1028093C0028D
S11340008DE00E94DE0D8AE00E94DE0D86E89AE0D3
S11340100E94E20DC4E3D2E088810E94020E8A81EC
S11340200E94020E8C810E94020E8E810E94020E5A
S11340308DE00E94DE0D8AE00E94DE0D8AE69AE0A1
S11340400E94E20DC2E5D2E088810E94020E8A81BC
S11340500E94020E8DE00E94DE0D8AE00E94DE0DB9
S113406087E49AE00E94E20D8DE00E94DE0D8AE072
S11340700E94DE0D8DE00E94DE0D8AE00E94DE0DBE
S113408080E20E94DE0D0E94DA0D8093AF020E944E
S1134090DE0DC6E4D2E08091AF028F7090E0998388
S11340A0888380E20E94DE0D0E94DA0D8093AF02C5
S11340B00E94DE0D2091AF022F70622F70E07B838F
S11340C06A8320919A0230919B02C901880F991F3B
S11340D0220F331F220F331F220F331F820F931F10
S11340E048815981840F951F9C01220F331F880F2B
S11340F0991F880F991F880F991F820F931F9B0187
S1134100280F391F30939B0220939A0262EE6203B8
S1134110A001639F500D11248091C8029091C9029F
S1134120840F951F9093B1028093B002E4E2F2E011
S1134130CCE1D2E02AE030E0B9010E94DB2D929379
S11341408293862F972FEC17FD07B1F79093C70240
S11341508093C6028DE00E94DE0D8AE00E94DE0D8F
S11341608CE29AE00E94E20DCCE1D2E088810E94C8
S1134170020E8A810E94020E8C810E94020E8E81A0
S11341800E94020E8DE00E94DE0D8AE00E94DE0D88
S11341908CE09AE00E94E20DC6E4D2E088810E949D
S11341A0020E8A810E94020E8DE00E94DE0D8AE0DA
S11341B00E94DE0D8DEE99E00E94E20D8DE00E94DA
S11341C0DE0D8AE00E94DE0D8DE00E94DE0D8AE0A5
S11341D00E94DE0D80E20E94DE0D0E94DA0D8093C3
S11341E0AF020E94DE0DC2E4D2E08091AF028F7074
S11341F090E09983888380E20E94DE0D0E94DA0DAC
S11342008093AF020E94DE0D2091AF022F70622FC7
S113421070E07B836A832091910230919202C901FC
S1134220880F991F220F331F220F331F220F331FB2
S1134230820F931F48815981840F951F9C01220F7F
S1134240331F880F991F880F991F880F991F820F9A
S1134250931F9B01280F391F3093920220939102E0
S113426062EE6203A001639F500D11248091C2028B
S11342709091C302840F951F9093CF028093CE0236
S1134280ECE2F2E0C4E2D2E02AE030E0B9010E94BC
S1134290DB2D92938293862F972FEC17FD07B1F7AE
S11342A09093B5028093B4028DE00E94DE0D8AE003
S11342B00E94DE0D86ED99E00E94E20DC4E2D2E098
S11342C088810E94020E8A810E94020E8C810E94C3
S11342D0020E8E810E94020E8DE00E94DE0D8AE0A5
S11342E00E94DE0D8DE00E94DE0D8AE00E94DE0D4C
S11342F08AEB99E00E94E20DC2E4D2E088810E9438
S1134300020E8A810E94020E8DE00E94DE0D8AE078
S11343100E94DE0D8BE999E00E94E20D8DE00E947F
S1134320DE0D8AE00E94DE0D80E20E94DE0D0E9416
S1134330DA0D8093AF020E94DE0DCAE4D2E08091D0
S1134340AF028F7090E09983888380E20E94DE0D33
S11343500E94DA0D8093AF020E94DE0D2091AF021D
S11343602F70622F70E07B836A832091AB023091BF
S1134370AC02C901880F991F220F331F220F331F6C
S1134380220F331F820F931F48815981840F951F79
S11343909C01220F331F880F991F880F991F880FC4
S11343A0991F820F931F9B01280F391F3093AC0272
S11343B02093AB0262EE6203A001639F500D1124AF
S11343C08091960290919702840F951F9093A60274
S11343D08093A502ECE1F2E0C4E1D2E02AE030E00F
S11343E0B9010E94DB2D92938293862F972FEC17AD
S11343F0FD07B1F79093B3028093B2028DE00E945F
S1134400DE0D8AE00E94DE0D84E899E00E94E20D50
S1134410C4E1D2E088810E94020E8A810E94020EC9
S11344208C810E94020E8E810E94020E8DE00E94F9
S1134430DE0D8AE00E94DE0D8DE00E94DE0D8AE032
S11344400E94DE0D88E699E00E94E20DCAE4D2E003
S113445088810E94020E8A810E94020E11C38DE09F
S11344600E94DE0D8AE00E94DE0D8FE493EC01973A
S1134470F1F700C000008091B6029091B7028093DA
S1134480800290938102ECE3F2E0C4E3D2E02AE0FC
S113449030E0B9010E94DB2D92938293862F972FEF
S11344A0EC17FD07B1F76093C0027093C1028DE071
S11344B00E94DE0D8AE00E94DE0D84E399E00E94F2
S11344C0E20D8DE00E94DE0D8AE00E94DE0D85E0A3
S11344D099E00E94E20D8DE00E94DE0D8AE00E94C8
S11344E0DE0D85EE98E00E94E20D8DE00E94DE0D67
S11344F08AE00E94DE0D8DE00E94DE0D8AE00E94BB
S1134500DE0D80E20E94DE0D0E94DA0D8093AF0280
S11345100E94DE0DCEE4D2E08091AF028F7090E075
S11345209983888380E20E94DE0D0E94DA0D8093D5
S1134530AF020E94DE0D2091AF022F70622F70E057
S11345407B836A832091CA023091CB02C901880F10
S1134550991F220F331F220F331F220F331F820F85
S1134560931F48815981840F951F9C01220F331F8B
S1134570880F991F880F991F880F991F820F931F07
S11345809B01280F391F3093CB022093CA0262EE9D
S11345906203A001639F500D112480918A029091BF
S11345A08B02840F951F9093850280938402E4E329
S11345B0F2E0CCE2D2E02AE030E0B9010E94DB2D47
S11345C092938293862F972FEC17FD07B1F7909360
S11345D0900280938F028DE00E94DE0D8AE00E949B
S11345E0DE0D8DEC98E00E94E20DCCE2D2E08881F1
S11345F00E94020E8A810E94020E8C810E94020E89
S11346008E810E94020E8DE00E94DE0D8AE00E94DF
S1134610DE0D8DE00E94DE0D8AE00E94DE0D8DE04D
S11346200E94DE0D8AE00E94DE0D82EB98E00E947B
S1134630E20DCEE4D2E088810E94020E8A810E94BB
S1134640020E8DE00E94DE0D8AE00E94DE0D8FE8EE
S113465098E00E94E20D8DE00E94DE0D8AE00E9447
S1134660DE0D80E20E94DE0D0E94DA0D8093AF021F
S11346700E94DE0DC6E4D2E08091AF028F7090E01C
S11346809983888380E20E94DE0D0E94DA0D809374
S1134690AF020E94DE0D2091AF022F70622F70E0F6
S11346A07B836A8320919A0230919B02C901880F0F
S11346B0991F220F331F220F331F220F331F820F24
S11346C0931F48815981840F951F9C01220F331F2A
S11346D0880F991F880F991F880F991F820F931FA6
S11346E09B01280F391F30939B0220939A0262EE9C
S11346F06203A001639F500D11248091C802909120
S1134700C902840F951F9093B1028093B002E4E232
S1134710F2E0CCE1D2E02AE030E0B9010E94DB2DE6
S113472092938293862F972FEC17FD07B1F79093FE
S1134730C7028093C6028DE00E94DE0D8AE00E94CB
S1134740DE0D84E798E00E94E20DCCE1D2E088819E
S11347500E94020E8A810E94020E8C810E94020E27
S11347608E810E94020E8DE00E94DE0D8AE00E947E
S1134770DE0D8DE00E94DE0D8AE00E94DE0D8DE0EC
S11347800E94DE0D8AE00E94DE0D84E598E00E941E
S1134790E20DC6E4D2E088810E94020E8A810E9462
S11347A0020E8DE00E94DE0D8AE00E94DE0D85E39C
S11347B098E00E94E20D8DE00E94DE0D8AE00E94E6
S11347C0DE0D80E20E94DE0D0E94DA0D8093AF02BE
S11347D00E94DE0DC2E4D2E08091AF028F7090E0BF
S11347E09983888380E20E94DE0D0E94DA0D809313
S11347F0AF020E94DE0D8091AF028F7090E09B8328
S11348008A838DE00E94DE0D8AE00E94DE0D2091F5
S1134810910230919202C901880F991F220F331F10
S1134820220F331F220F331F820F931F28813981D8
S1134830820F931F9C01220F331F880F991F880F2B
S1134840991F880F991F820F931F2A813B81280F7C
S1134850391F309392022093910262EE6203A00109
S1134860639F500D11248091C2029091C302840F62
S1134870951F9093CF028093CE02ECE2F2E0C4E263
S1134880D2E02AE030E0B9010E94DB2D92938293BA
S1134890862F972FEC17FD07B1F79093B5028093FD
S11348A0B4028DE00E94DE0D8AE00E94DE0D8EE1EE
S11348B098E00E94E20DC4E2D2E088810E94020ED8
S11348C08A810E94020E8C810E94020E8E810E94B7
S11348D0020E8DE00E94DE0D8AE00E94DE0D8EEF56
S11348E097E00E94E20DC2E4D2E088810E94020EA9
S11348F08A810E94020E8DE00E94DE0D8AE00E94F1
S1134900DE0D8FED97E00E94E20D8DE00E94DE0D3A
S11349108AE00E94DE0D80E20E94DE0D0E94DA0D24
S11349208093AF020E94DE0DCAE4D2E08091AF0210
S11349308F7090E09983888380E20E94DE0D0E944C
S1134940DA0D8093AF020E94DE0D8091AF028F706A
S113495090E09B838A838DE00E94DE0D8AE00E94B2
S1134960DE0D2091AB023091AC02C901880F991F72
S1134970220F331F220F331F220F331F820F931F67
S113498028813981820F931F9C01220F331F880FC6
S1134990991F880F991F880F991F820F931F2A81CF
S11349A03B81280F391F3093AC022093AB0262EE97
S11349B06203A001639F500D11248091960290918F
S11349C09702840F951F9093A6028093A502ECE1B1
S11349D0F2E0C4E1D2E02AE030E0B9010E94DB2D2C
S11349E092938293862F972FEC17FD07B1F790933C
S11349F0B3028093B2028DE00E94DE0D8AE00E9431
S1134A00DE0D88EC97E00E94E20DC4E1D2E08881DB
S1134A100E94020E8A810E94020E8C810E94020E64
S1134A208E810E94020E8DE00E94DE0D8AE00E94BB
S1134A30DE0D8DE00E94DE0D8AE00E94DE0D8CEA20
S1134A4097E00E94E20DCAE4D2E088810E94020E3F
S1134A508A810E94020E14C08DE00E94DE0D8AE05D
S1134A600E94DE0D89E897E00E94E20D8DE00E942D
S1134A70DE0D8AE00E94DE0D80E797E00E94E20DE1
S1134A806091800285E090E00E94462E6091B00221
S1134A9086E090E00E94462E6091A50287E090E0B7
S1134AA00E94462E6091840288E090E00E94462E87
S1134AB06091CE0289E090E00E94462E0E94100E82
S1134AC01FC38DE00E94DE0D8AE00E94DE0D8FE49C
S1134AD093EC0197F1F700C000008BE397E00E948C
S1134AE0E20D8091BE029091BF02CCE3D2E02AE0B5
S1134AF030E0B9010E94DB2D9D838C83CB01B90189
S1134B000E94DB2D9B838A83CB01B9010E94DB2D9C
S1134B10998388837093BD026093BC028DE00E94E8
S1134B20DE0D8AE00E94DE0D88810E94020E8A81D9
S1134B300E94020E8C810E94020E83E397E00E9481
S1134B40E20D8DE00E94DE0D8AE00E94DE0D8DE014
S1134B500E94DE0D8AE00E94DE0D8AE197E00E9449
S1134B60E20D8DE00E94DE0D8AE00E94DE0D80E2FF
S1134B700E94DE0DC5C28DE00E94DE0D8AE00E9417
S1134B80DE0D8FE493EC0197F1F700C000008FEE87
S1134B9096E00E94E20D8DE00E94DE0D8AE00E9404
S1134BA0DE0D80919E0290919F02CEEED1E02AE02C
S1134BB030E0B9010E94DB2D9D838C83CB01B901C8
S1134BC0FAD79B838A83CB01B901F5D7888399836C
S1134BD07093AE026093AD020E94020E8A810E941D
S1134BE0020E8C810E94020E8DE00E94DE0D8AE08E
S1134BF00E94DE0D8DE00E94DE0D8AE00E94DE0D33
S1134C0086ED96E00E94E20D80E20E94DE0D78C2FD
S1134C108DE00E94DE0D8AE00E94DE0D8FE493ECAD
S1134C200197F1F700C00000809180029091810209
S1134C309093C1028093C00287EA96E00E94E20D3D
S1134C408091C0029091C102ECE3F2E0C4E3D2E0AF
S1134C502AE030E0B901AFD792938293862F972F41
S1134C60EC17FD07B9F76093C0027093C1028DE0A1
S1134C700E94DE0D8AE00E94DE0D8FE896E00E941D
S1134C80E20DC4E3D2E088810E94020E8A810E9470
S1134C90020E8C810E94020E8E810E94020E8DE013
S1134CA00E94DE0D8AE00E94DE0D809184029091C4
S1134CB08502E4E3F2E0CCE2D2E02AE030E0B9019C
S1134CC07AD792938293862F972FEC17FD07B9F723
S1134CD060938F027093900287E796E00E94E20D42
S1134CE0CCE2D2E088810E94020E8A810E94020EE8
S1134CF08C810E94020E8E810E94020E8DE00E9421
S1134D00DE0D8AE00E94DE0D8091B0029091B10226
S1134D10E4E2F2E0CCE1D2E02AE030E0B9014BD7A2
S1134D2092938293862F972FEC17FD07B9F7609320
S1134D30C6027093C7028CE596E00E94E20DCCE1B6
S1134D40D2E088810E94020E8A810E94020E8C8128
S1134D500E94020E8E810E94020E8DE00E94DE0DE2
S1134D608AE00E94DE0D8091A5029091A602ECE1FA
S1134D70F2E0C4E1D2E02AE030E0B9011CD792931A
S1134D808293862F972FEC17FD07B9F76093B20231
S1134D907093B30285E496E00E94E20DC4E1D2E090
S1134DA088810E94020E8A810E94020E8C810E94D8
S1134DB0020E8E810E94020E8DE00E94DE0D8AE0BA
S1134DC00E94DE0D8091CE029091CF02ECE2F2E0DF
S1134DD0C4E2D2E02AE030E0B901EDD692938293A6
S1134DE0862F972FEC17FD07B9F76093B4027093E1
S1134DF0B5028EE296E00E94E20DC4E2D2E0888120
S1134E000E94020E8A810E94020E8C810E94020E70
S1134E108E810E94020E8DE00E94DE0D8AE00E94C7
S1134E20DE0D85E196E00E94E20D8DE00E94DE0D2C
S1134E308AE00E94DE0D80E20E94DE0D61C18DE0F9
S1134E400E94DE0D8AE00E94DE0D8FE493EC019750
S1134E50F1F700C000008AEF95E00E94E20D809116
S1134E60980290919902C2EED1E02AE030E0B901B3
S1134E70A2D69D838C83CB01B9019DD69B838A8363
S1134E80CB01B90198D6888399837093A202609369
S1134E90A1020E94020E8A810E94020E8C810E944D
S1134EA0020E81EF95E00E94E20D8DE00E94DE0D7E
S1134EB08AE00E94DE0D8DE00E94DE0D8AE00E94F1
S1134EC0DE0D88ED95E00E94E20D8DE00E94DE0D7E
S1134ED08AE00E94DE0D80E20E94DE0D11C18DE0A9
S1134EE00E94DE0D8AE00E94DE0D8FE493EC0197B0
S1134EF0F1F700C0000088EB95E00E94E20D80917C
S1134F00940290919502C8EED1E02AE030E0B90114
S1134F1052D69D838C83CB01B9014DD69B838A8362
S1134F20CB01B90148D6888399837093A802609312
S1134F30A7020E94020E8A810E94020E8C810E94A6
S1134F40020E8FEA95E00E94E20D8DE00E94DE0DD4
S1134F508AE00E94DE0D8DE00E94DE0D8AE00E9450
S1134F60DE0D86E995E00E94E20D8DE00E94DE0DE3
S1134F708AE00E94DE0D80E20E94DE0DC1C08DE059
S1134F800E94DE0D8AE00E94DE0D8FE493EC01970F
S1134F90F1F700C0000082E795E00E94E20D0E9454
S1134FA0100E8DE00E94DE0D8AE00E94DE0D80E28C
S1134FB00E94DE0DA5C08DE00E94DE0D8AE00E94F5
S1134FC0DE0D8FE493EC0197F1F700C0000087E554
S1134FD095E00E94E20D1092B9021092B80210926C
S1134FE09F0210929E0210929502109294021092C7
S1134FF09902109298021092BF021092BE0210926F
S1135000C1021092C0021092C7021092C6021092FE
S1135010B3021092B2021092900210928F02109278
S1135020B5021092B4029FE72AE186E09150204035
S11350308040E1F700C000006091B80280E090E099
S113504025D660919E0281E090E020D66091940282
S113505082E090E01BD66091980283E090E016D63F
S11350606091BE0284E090E011D66091800285E0F8
S113507090E00CD66091B00286E090E007D6609193
S1135080A50287E090E002D66091840288E090E077
S1135090FDD56091CE0289E090E0F8D58DE00E94C4
S11350A0DE0D8AE00E94DE0D89E395E00E94E20DA8
S11350B08DE00E94DE0D8AE00E94DE0D80E295E024
S11350C00E94E20D8DE00E94DE0D8AE00E94DE0D5A
S11350D080E20E94DE0D14C08DE00E94DE0D8AE0A5
S11350E00E94DE0D8DEF94E00E94E20D8DE00E949F
S11350F0DE0D8AE00E94DE0D84EE94E00E94E20D53
S1135100DF91CF9108951F920F920FB60F92112441
S11351100BB60F922F933F934F935F936F937F93AD
S11351208F939F93AF93BF93EF93FF938CB180932F
S113513093028DE00E94DE0D8AE00E94DE0D8AEC6F
S113514094E00E94E20D8DE00E94DE0D8AE00E9450
S1135150DE0D8CE894E00E94E20D8DE00E94DE0DED
S11351608AE00E94DE0D85E594E00E94E20D8DE068
S11351700E94DE0D8AE00E94DE0D8EE194E00E9422
S1135180E20D8DE00E94DE0D8AE00E94DE0D80EFCC
S113519093E00E94E20D8DE00E94DE0D8AE00E9401
S11351A0DE0D82EC93E00E94E20D8DE00E94DE0DA4
S11351B08AE00E94DE0D8BE993E00E94E20D8DE00F
S11351C00E94DE0D8AE00E94DE0D8FE793E00E94CC
S11351D0E20D8DE00E94DE0D8AE00E94DE0D83E682
S11351E093E00E94E20D8DE00E94DE0D8AE00E94B1
S11351F0DE0D80E20E94DE0D0E94DA0D80939302A0
S11352008DE00E94DE0D8AE00E94DE0D8091930203
S11352100E946C13FF91EF91BF91AF919F918F9179
S11352207F916F915F914F913F912F910F900BBEA2
S11352300F900FBE0F901F9018958FEF8ABB91E0CF
S113524097BB82B98EEF82B983E390E00E94D10DBF
S11352500E94C70D8DE00E94DE0D8AE00E94DE0DE3
S11352608DE00E94DE0D8AE00E94DE0D84E393E06F
S11352700E94E20D8DE00E94DE0D8AE00E94DE0DA8
S113528085E093E00E94E20D8DE00E94DE0D8AE04D
S11352900E94DE0D86ED92E00E94E20D8DE00E94F8
S11352A0DE0D8AE00E94DE0D87EA92E00E94E20DA4
S11352B08DE00E94DE0D8AE00E94DE0D87E792E019
S11352C00E94E20D8DE00E94DE0D8AE00E94DE0D58
S11352D087E492E00E94E20D8DE00E94DE0D8AE0F8
S11352E00E94DE0D87E192E00E94E20D8DE00E94B3
S11352F0DE0D8AE00E94DE0D87EE91E00E94E20D51
S11353008DE00E94DE0D8AE00E94DE0D87EB91E0C5
S11353100E94E20D8DE00E94DE0D8AE00E94DE0D07
S113532087E891E00E94E20D8DE00E94DE0D8AE0A4
S11353300E94DE0D87E591E00E94E20D8DE00E945F
S1135340DE0D8AE00E94DE0D87E291E00E94E20D0C
S11353508DE00E94DE0D8AE00E94DE0D87EF90E072
S11353600E94E20D8DE00E94DE0D8AE00E94DE0DB7
S113537088EC90E00E94E20D8DE00E94DE0D8AE050
S11353800E94DE0D8CE990E00E94E20D8DE00E9407
S1135390DE0D8AE00E94DE0D80E091E00E94F40DB3
S11353A00E94450D80E090E069D490E09093B902AA
S11353B08093B80281E090E061D490E090939F02E2
S11353C080939E0282E090E059D490E090939502FD
S11353D08093940283E090E051D490E090939902FA
S11353E08093980284E090E049D490E09093BF02C7
S11353F08093BE0285E090E041D490E090938102D6
S11354008093800286E090E039D490E09093B102DA
S11354108093B00287E090E031D490E09093A602AC
S11354208093A50288E090E029D490E090938502CF
S11354308093840289E090E021D490E09093CF029D
S11354408093CE02C19AEE24E394C2E6D0E000E851
S113545010EC0F2EF4E9FF2EF02D6894BB24B1F864
S11354600F2EFEE9CF2EF2E0DF2EF02DB19968C1A8
S11354708091BE029091BF02892B09F42EC18091C4
S1135480B8029091B902892B09F4E3C0B8BA0E941A
S11354905C0D08830E94360D8CE191E00E94690D39
S11354A018830E94360D86E291E00E94690DF8820D
S11354B00E94360D87E391E00E94690D2FE78AE18F
S11354C096E0215080409040E1F700C000000E9427
S11354D07F0D60919802709199026F5F7F4F709376
S11354E099026093980283E090E0D0D30E945C0D0F
S11354F008830E94360D8CE191E00E94690D1883A7
S11355000E94360D81E491E00E94690DBBBAEFE37D
S1135510FDE023E0E150F0402040E1F700C000004E
S1135520EBBA8FE39DE0E3E081509040E040E1F787
S113553000C000001BBA80919E0290919F020196C8
S113554090939F0280939E026091B8027091B90279
S1135550615071097093B9026093B80280E090E0E1
S113556095D3F601608181E090E090D36091BE0212
S11355707091BF02072E000C880B990B2DD220913D
S1135580860230918702409188025091890224D189
S1135590F0D16093BE027093BF0284E090E076D3B2
S11355A00E945C0D08830E94360D8CE191E00E94FC
S11355B0690D18830E94360D81E591E00E94690D02
S11355C0F8820E94360D82E691E00E94690DFFE7A1
S11355D02AE186E0F15020408040E1F700C000005D
S11355E00E947F0D0E945C0D08830E94360D8CE1A1
S11355F091E00E94690D18830E94360D80E791E0C6
S11356000E94690DEBBA9FE3EDE0F3E09150E040B6
S1135610F040E1F700C000001BBA0E945C0D088353
S11356200E94360D8CE191E00E94690D18830E945E
S1135630360D8FE791E00E94690DF8820E94360DC5
S11356408DE891E00E94690D0E947F0D0E947F0DFC
S11356500DCFE8BA0E945C0D08830E94360D88E9DC
S113566091E00E94690D2FE38DE093E0215080408A
S11356709040E1F700C0000018830E94360D83EAD1
S113568091E00E94690DEFE3FDE023E0E150F0407A
S11356902040E1F700C00000F8820E94360D81EB43
S11356A091E00E94690D8FE39DE0E3E0815090401A
S11356B0E040E1F700C000001092BB021092BA0271
S11356C010929F0210929E021092950210929402E0
S11356D01092990210929802C9CE0E945C0D088320
S11356E00E94360D8DEB91E00E94690DFFE32DE0E1
S11356F083E0F15020408040E1F700C000001883AF
S11357000E94360D85EC91E00E94690D9FE3EDE067
S1135710F3E09150E040F040E1F700C00000F8826F
S11357200E94360D81EB91E00E94690D2FE38DE01C
S113573093E0215080409040E1F700C0000096CEF5
S11357408091980290919902892B09F441C0E8BA9A
S11357500E945C0D08830E94360D8DE191E00E9449
S1135760690DEFE3FDE023E0E150F0402040E1F774
S113577000C0000018830E94360D83ED91E00E9462
S1135780690D8FE39DE0E3E081509040E040E1F754
S113579000C00000F8820E94360D89ED91E00E945D
S11357A0690DFFE32DE083E0F15020408040E1F7F4
S11357B000C0000060919402709195026F5F7F4F6A
S11357C0709395026093940282E090E05FD24ECE93
S11357D0E8BA0E945C0D4ACE5058BB27AA270ED0C7
S11357E04DC13ED130F043D120F031F49F3F11F44C
S11357F01EF433C10EF4E095E7FB29C1E92F4FD124
S113580080F3BA17620773078407950718F071F4D9
S11358109EF567C10EF4E0950B2EBA2FA02D0B0157
S1135820B90190010C01CA01A0011124FF27591BE1
S113583099F0593F50F4503E68F11A16F040A22FE7
S1135840232F342F4427585FF3CF46953795279558
S1135850A795F0405395C9F77EF41F16BA0B620B57
S1135860730B840BBAF09150A1F0FF0FBB1F661F9E
S1135870771F881FC2F70EC0BA0F621F731F841FE1
S113588048F4879577956795B795F7959E3F08F007
S1135890B3CF9395880F08F09927EE0F97958795C6
S11358A008950CD0EBC0E3D040F0DAD030F021F40E
S11358B05F3F19F0CCC0511115C1CFC0F0D098F39F
S11358C09923C9F35523B1F3951B550BBB27AA277D
S11358D062177307840738F09F5F5F4F220F331FEF
S11358E0441FAA1FA9F333D00E2E3AF0E0E830D0BB
S11358F091505040E695001CCAF729D0FE2F27D0BE
S1135900660F771F881FBB1F261737074807AB078B
S1135910B0E809F0BB0B802DBF01FF2793585F4F00
S11359202AF09E3F510568F092C0DCC05F3FECF363
S1135930983EDCF3869577956795B795F7959F5FC5
S1135940C9F7880F911D9695879597F90895E1E019
S1135950660F771F881FBB1F621773078407BA0778
S113596020F0621B730B840BBA0BEE1F88F7E095D3
S1135970089504D06894B111B5C0089598D088F002
S11359809F5790F0B92F9927B751A0F0D1F0660F27
S1135990771F881F991F1AF0BA95C9F712C0B13042
S11359A081F09FD0B1E008959CC0672F782F88279D
S11359B0B85F39F0B93FCCF3869577956795B39581
S11359C0D9F73EF490958095709561957F4F8F4FF0
S11359D09F4F0895E89409C097FB3EF490958095F5
S11359E0709561957F4F8F4F9F4F9923A9F0F92FA1
S11359F096E9BB279395F695879577956795B7951F
S1135A00F111F8CFFAF4BB0F11F460FF1BC06F5F04
S1135A107F4F8F4F9F4F16C0882311F096E911C016
S1135A20772321F09EE8872F762F05C0662371F037
S1135A3096E8862F70E060E02AF09A95660F771F4B
S1135A40881FDAF7880F9695879597F9089597F93F
S1135A509F6780E870E060E008959FEF80EC089510
S1135A6000240A9416161706180609060895002439
S1135A700A9412161306140605060895092E0394B3
S1135A80000C11F4882352F0BB0F40F4BF2B11F427
S1135A9060FF04C06F5F7F4F8F4F9F4F089557FD86
S1135AA09058440F551F59F05F3F71F04795880F88
S1135AB097FB991F61F09F3F79F08795089512161F
S1135AC013061406551FF2CF4695F1DF08C01616CB
S1135AD017061806991FF1CF86957105610508947C
S1135AE00895E894BB2766277727CB0197F9089593
S1135AF00BD0C4CFB5DF28F0BADF18F0952309F036
S1135B00A6CFABCF1124EECFCADFA0F3959FD1F37C
S1135B10950F50E0551F629FF001729FBB27F00D57
S1135B20B11D639FAA27F00DB11DAA1F649F6627AC
S1135B30B00DA11D661F829F2227B00DA11D621FFB
S1135B40739FB00DA11D621F839FA00D611D221FB5
S1135B50749F3327A00D611D231F849F600D211D99
S1135B60822F762F6A2F11249F5750408AF0E1F03C
S1135B7088234AF0EE0FFF1FBB1F661F771F881F85
S1135B8091505040A9F79E3F510570F060CFAACFC5
S1135B905F3FECF3983EDCF3869577956795B79570
S1135BA0F795E7959F5FC1F7FE2B880F911D96959A
S1135BB0879597F9089597FB072E16F4009406D05D
S1135BC077FD08D014D007FC05D03EF4909581955C
S1135BD09F4F0895709561957F4F0895EE0FFF1FB5
S1135BE00024001C0BBE0790F691E02D0994AA1B1B
S1135BF0BB1B51E107C0AA1FBB1FA617B70710F0B4
S1135C00A61BB70B881F991F5A95A9F780959095E5
S1135C10BC01CD010895BB274A3031F4992322F405
S1135C20BDE2909581959F4F01C0BB27FB0155278D
S1135C30AA27880F991FAA1FA41710F0A41B8395E5
S1135C405051B9F7A05DAA3308F0A95DA19300975C
S1135C5079F7B111B1931192CB0100C0DC01FC01C1
S1135C60672F71917723E1F7329704C07C916D938C
S1135C7070836291AE17BF07C8F30895E199FECF10
S1135C809FBB8EBBE09A99278DB30895262FE19987
S1135C90FECF9FBB8EBB2DBB0FB6F894E29AE19A60
S10D5CA00FBE01960895F894FFCF9B
S1135CAA505245535320414E59204B455920746F45
S1135CBA2070726F636565642E2E2E002A2A53544F
S1135CCA415455532A002053454E44494E472042D5
S1135CDA4F54544C45200020544F205354414745B7
